{
  "contractName": "Crowdsale",
  "abi": [
    {
      "inputs": [
        {
          "internalType": "uint256",
          "name": "_rate",
          "type": "uint256"
        },
        {
          "internalType": "address",
          "name": "_wallet",
          "type": "address"
        },
        {
          "internalType": "contract ERC20",
          "name": "_token",
          "type": "address"
        }
      ],
      "stateMutability": "payable",
      "type": "constructor"
    },
    {
      "anonymous": false,
      "inputs": [
        {
          "indexed": true,
          "internalType": "address",
          "name": "purchaser",
          "type": "address"
        },
        {
          "indexed": true,
          "internalType": "address",
          "name": "beneficiary",
          "type": "address"
        },
        {
          "indexed": false,
          "internalType": "uint256",
          "name": "value",
          "type": "uint256"
        },
        {
          "indexed": false,
          "internalType": "uint256",
          "name": "amount",
          "type": "uint256"
        }
      ],
      "name": "TokenPurchase",
      "type": "event"
    },
    {
      "inputs": [],
      "name": "rate",
      "outputs": [
        {
          "internalType": "uint256",
          "name": "",
          "type": "uint256"
        }
      ],
      "stateMutability": "view",
      "type": "function"
    },
    {
      "inputs": [],
      "name": "token",
      "outputs": [
        {
          "internalType": "contract ERC20",
          "name": "",
          "type": "address"
        }
      ],
      "stateMutability": "view",
      "type": "function"
    },
    {
      "inputs": [],
      "name": "wallet",
      "outputs": [
        {
          "internalType": "address",
          "name": "",
          "type": "address"
        }
      ],
      "stateMutability": "view",
      "type": "function"
    },
    {
      "inputs": [],
      "name": "weiRaised",
      "outputs": [
        {
          "internalType": "uint256",
          "name": "",
          "type": "uint256"
        }
      ],
      "stateMutability": "view",
      "type": "function"
    }
  ],
  "bytecode": "0x6080604052604051610418380380610418833981810160405281019061002591906100f4565b8260028190555081600160006101000a81548173ffffffffffffffffffffffffffffffffffffffff021916908373ffffffffffffffffffffffffffffffffffffffff160217905550806000806101000a81548173ffffffffffffffffffffffffffffffffffffffff021916908373ffffffffffffffffffffffffffffffffffffffff1602179055505050506101d6565b6000815190506100c481610191565b92915050565b6000815190506100d9816101a8565b92915050565b6000815190506100ee816101bf565b92915050565b60008060006060848603121561010957600080fd5b6000610117868287016100df565b9350506020610128868287016100b5565b9250506040610139868287016100ca565b9150509250925092565b600061014e82610167565b9050919050565b600061016082610143565b9050919050565b600073ffffffffffffffffffffffffffffffffffffffff82169050919050565b6000819050919050565b61019a81610143565b81146101a557600080fd5b50565b6101b181610155565b81146101bc57600080fd5b50565b6101c881610187565b81146101d357600080fd5b50565b610233806101e56000396000f3fe608060405234801561001057600080fd5b506004361061004c5760003560e01c80632c4e722e146100515780634042b66f1461006f578063521eb2731461008d578063fc0c546a146100ab575b600080fd5b6100596100c9565b6040516100669190610182565b60405180910390f35b6100776100cf565b6040516100849190610182565b60405180910390f35b6100956100d5565b6040516100a2919061014c565b60405180910390f35b6100b36100fb565b6040516100c09190610167565b60405180910390f35b60025481565b60035481565b600160009054906101000a900473ffffffffffffffffffffffffffffffffffffffff1681565b60008054906101000a900473ffffffffffffffffffffffffffffffffffffffff1681565b6101288161019d565b82525050565b610137816101d9565b82525050565b610146816101cf565b82525050565b6000602082019050610161600083018461011f565b92915050565b600060208201905061017c600083018461012e565b92915050565b6000602082019050610197600083018461013d565b92915050565b60006101a8826101af565b9050919050565b600073ffffffffffffffffffffffffffffffffffffffff82169050919050565b6000819050919050565b60006101e4826101eb565b9050919050565b60006101f6826101af565b905091905056fea264697066735822122050703f5fa405fcebd8817810df895597883453718a189f97e790862db5022f5d64736f6c63430008000033",
  "immutableReferences": {},
  "source": "// SPDX-License-Identifier: MIT\npragma solidity >=0.4.22 <0.9.0;\n\n// import \"../token/ERC20/ERC20.sol\";\nimport \"./math/SafeMath.sol\";\n// import \"../token/ERC20/SafeERC20.sol\";\n\nimport \"openzeppelin-solidity/contracts/token/ERC20/ERC20.sol\";\n\n\n/**\n * @title Crowdsale\n * @dev Crowdsale is a base contract for managing a token crowdsale,\n * allowing investors to purchase tokens with ether. This contract implements\n * such functionality in its most fundamental form and can be extended to provide additional\n * functionality and/or custom behavior.\n * The external interface represents the basic interface for purchasing tokens, and conform\n * the base architecture for crowdsales. They are *not* intended to be modified / overriden.\n * The internal interface conforms the extensible and modifiable surface of crowdsales. Override\n * the methods to add functionality. Consider using 'super' where appropiate to concatenate\n * behavior.\n */\ncontract Crowdsale {\n  using SafeMath for uint256;\n\n//   using SafeERC20 for ERC20;\n\n  // The token being sold\n  ERC20 public token;\n\n  // Address where funds are collected\n  address public wallet;\n\n  // How many token units a buyer gets per wei.\n  // The rate is the conversion between wei and the smallest and indivisible token unit.\n  // So, if you are using a rate of 1 with a DetailedERC20 token with 3 decimals called TOK\n  // 1 wei will give you 1 unit, or 0.001 TOK.\n  uint256 public rate;\n\n  // Amount of wei raised\n  uint256 public weiRaised;\n\n  /**\n   * Event for token purchase logging\n   * @param purchaser who paid for the tokens\n   * @param beneficiary who got the tokens\n   * @param value weis paid for purchase\n   * @param amount amount of tokens purchased\n   */\n  event TokenPurchase(\n    address indexed purchaser,\n    address indexed beneficiary,\n    uint256 value,\n    uint256 amount\n  );\n\n  /**\n   * @param _rate Number of token units a buyer gets per wei\n   * @param _wallet Address where collected funds will be forwarded to\n   * @param _token Address of the token being sold\n   */\n  constructor(uint256 _rate, address _wallet, ERC20 _token) payable {\n    // require(_rate > 0);\n    // require(_wallet != address(0));\n    // require(_token != address(0));\n\n    rate = _rate;\n    wallet = _wallet;\n    token = _token;\n  }\n\n  // -----------------------------------------\n  // Crowdsale external interface\n  // -----------------------------------------\n\n  /**\n   * @dev fallback function ***DO NOT OVERRIDE***\n   */\n//   function () external payable {\n//     buyTokens(msg.sender);\n//   }\n\n  /**\n   * @dev low level token purchase ***DO NOT OVERRIDE***\n   * @param _beneficiary Address performing the token purchase\n   */\n//   function buyTokens(address _beneficiary) public payable {\n\n    //  uint256 weiAmount = msg.value;\n    //  _preValidatePurchase(_beneficiary, weiAmount);\n\n//     // calculate token amount to be created\n//     uint256 tokens = _getTokenAmount(weiAmount);\n\n//     // update state\n//     weiRaised = weiRaised.add(weiAmount);\n\n//     _processPurchase(_beneficiary, tokens);\n//     emit TokenPurchase(\n//       msg.sender,\n//       _beneficiary,\n//       weiAmount,\n//       tokens\n//     );\n\n//     _updatePurchasingState(_beneficiary, weiAmount);\n\n//     _forwardFunds();\n//     _postValidatePurchase(_beneficiary, weiAmount);\n//   }\n\n  // -----------------------------------------\n  // Internal interface (extensible)\n  // -----------------------------------------\n\n  /**\n   * @dev Validation of an incoming purchase. Use require statements to revert state when conditions are not met. Use super to concatenate validations.\n   * @param _beneficiary Address performing the token purchase\n   * @param _weiAmount Value in wei involved in the purchase\n   */\n  function _preValidatePurchase(\n    address _beneficiary,\n    uint256 _weiAmount\n  )\n     internal\n     pure\n     virtual\n   \n  {\n    require(_beneficiary != address(0));\n    require(_weiAmount != 0);\n  }\n\n  /**\n   * @dev Validation of an executed purchase. Observe state and use revert statements to undo rollback when valid conditions are not met.\n   * @param _beneficiary Address performing the token purchase\n   * @param _weiAmount Value in wei involved in the purchase\n   */\n  function _postValidatePurchase(\n    address _beneficiary,\n    uint256 _weiAmount\n  )\n    internal\n  {\n    // optional override\n  }\n\n  /**\n   * @dev Source of tokens. Override this method to modify the way in which the crowdsale ultimately gets and sends its tokens.\n   * @param _beneficiary Address performing the token purchase\n   * @param _tokenAmount Number of tokens to be emitted\n   */\n  function _deliverTokens(\n    address _beneficiary,\n    uint256 _tokenAmount\n  )\n//     internal\n//   {\n//     token.safeTransfer(_beneficiary, _tokenAmount);\n//   }\n\n  /**\n   * @dev Executed when a purchase has been validated and is ready to be executed. Not necessarily emits/sends tokens.\n   * @param _beneficiary Address receiving the tokens\n   * @param _tokenAmount Number of tokens to be purchased\n   */\n//   function _processPurchase(\n//     address _beneficiary,\n//     uint256 _tokenAmount\n//   )\n    internal\n  {\n    _deliverTokens(_beneficiary, _tokenAmount);\n  }\n\n  /**\n   * @dev Override for extensions that require an internal state to check for validity (current user contributions, etc.)\n   * @param _beneficiary Address receiving the tokens\n   * @param _weiAmount Value in wei involved in the purchase\n   */\n  function _updatePurchasingState(\n    address _beneficiary,\n    uint256 _weiAmount\n  )\n    internal\n  {\n    // optional override\n  }\n\n  /**\n   * @dev Override to extend the way in which ether is converted to tokens.\n   * @param _weiAmount Value in wei to be converted into tokens\n   * @return Number of tokens that can be purchased with the specified _weiAmount\n   */\n  function _getTokenAmount(uint256 _weiAmount)\n    internal view returns (uint256)\n  {\n    return _weiAmount.mul(rate);\n  }\n\n  /**\n   * @dev Determines how ETH is stored/forwarded on purchases.\n   */\n//   function _forwardFunds() internal {\n//     wallet.transfer(msg.value);\n//   }\n}",
  "sourcePath": "/home/muhammadbabarhanif/new ICO's/contracts/Crowdsale.sol",
  "compiler": {
    "name": "solc",
    "version": "0.8.0+commit.c7dfd78e.Emscripten.clang"
  },
  "schemaVersion": "3.4.6",
  "updatedAt": "2022-04-10T18:04:34.422Z",
  "devdoc": {
    "details": "Crowdsale is a base contract for managing a token crowdsale, allowing investors to purchase tokens with ether. This contract implements such functionality in its most fundamental form and can be extended to provide additional functionality and/or custom behavior. The external interface represents the basic interface for purchasing tokens, and conform the base architecture for crowdsales. They are *not* intended to be modified / overriden. The internal interface conforms the extensible and modifiable surface of crowdsales. Override the methods to add functionality. Consider using 'super' where appropiate to concatenate behavior.",
    "events": {
      "TokenPurchase(address,address,uint256,uint256)": {
        "params": {
          "amount": "amount of tokens purchased",
          "beneficiary": "who got the tokens",
          "purchaser": "who paid for the tokens",
          "value": "weis paid for purchase"
        }
      }
    },
    "kind": "dev",
    "methods": {
      "constructor": {
        "params": {
          "_rate": "Number of token units a buyer gets per wei",
          "_token": "Address of the token being sold",
          "_wallet": "Address where collected funds will be forwarded to"
        }
      }
    },
    "title": "Crowdsale",
    "version": 1
  },
  "userdoc": {
    "events": {
      "TokenPurchase(address,address,uint256,uint256)": {
        "notice": "Event for token purchase logging"
      }
    },
    "kind": "user",
    "methods": {},
    "version": 1
  }
}