{
  "contractName": "DappTokenCrowdsale",
  "abi": [
    {
      "inputs": [
        {
          "internalType": "uint256",
          "name": "_rate",
          "type": "uint256"
        },
        {
          "internalType": "address",
          "name": "_wallet",
          "type": "address"
        },
        {
          "internalType": "contract ERC20",
          "name": "_token",
          "type": "address"
        }
      ],
      "stateMutability": "nonpayable",
      "type": "constructor"
    },
    {
      "anonymous": false,
      "inputs": [
        {
          "indexed": true,
          "internalType": "address",
          "name": "purchaser",
          "type": "address"
        },
        {
          "indexed": true,
          "internalType": "address",
          "name": "beneficiary",
          "type": "address"
        },
        {
          "indexed": false,
          "internalType": "uint256",
          "name": "value",
          "type": "uint256"
        },
        {
          "indexed": false,
          "internalType": "uint256",
          "name": "amount",
          "type": "uint256"
        }
      ],
      "name": "TokenPurchase",
      "type": "event"
    },
    {
      "inputs": [],
      "name": "rate",
      "outputs": [
        {
          "internalType": "uint256",
          "name": "",
          "type": "uint256"
        }
      ],
      "stateMutability": "view",
      "type": "function"
    },
    {
      "inputs": [],
      "name": "token",
      "outputs": [
        {
          "internalType": "contract ERC20",
          "name": "",
          "type": "address"
        }
      ],
      "stateMutability": "view",
      "type": "function"
    },
    {
      "inputs": [],
      "name": "wallet",
      "outputs": [
        {
          "internalType": "address",
          "name": "",
          "type": "address"
        }
      ],
      "stateMutability": "view",
      "type": "function"
    },
    {
      "inputs": [],
      "name": "weiRaised",
      "outputs": [
        {
          "internalType": "uint256",
          "name": "",
          "type": "uint256"
        }
      ],
      "stateMutability": "view",
      "type": "function"
    }
  ],
  "bytecode": "0x608060405234801561001057600080fd5b5060405161042b38038061042b83398181016040528101906100329190610107565b8282828260028190555081600160006101000a81548173ffffffffffffffffffffffffffffffffffffffff021916908373ffffffffffffffffffffffffffffffffffffffff160217905550806000806101000a81548173ffffffffffffffffffffffffffffffffffffffff021916908373ffffffffffffffffffffffffffffffffffffffff1602179055505050505050506101e9565b6000815190506100d7816101a4565b92915050565b6000815190506100ec816101bb565b92915050565b600081519050610101816101d2565b92915050565b60008060006060848603121561011c57600080fd5b600061012a868287016100f2565b935050602061013b868287016100c8565b925050604061014c868287016100dd565b9150509250925092565b60006101618261017a565b9050919050565b600061017382610156565b9050919050565b600073ffffffffffffffffffffffffffffffffffffffff82169050919050565b6000819050919050565b6101ad81610156565b81146101b857600080fd5b50565b6101c481610168565b81146101cf57600080fd5b50565b6101db8161019a565b81146101e657600080fd5b50565b610233806101f86000396000f3fe608060405234801561001057600080fd5b506004361061004c5760003560e01c80632c4e722e146100515780634042b66f1461006f578063521eb2731461008d578063fc0c546a146100ab575b600080fd5b6100596100c9565b6040516100669190610182565b60405180910390f35b6100776100cf565b6040516100849190610182565b60405180910390f35b6100956100d5565b6040516100a2919061014c565b60405180910390f35b6100b36100fb565b6040516100c09190610167565b60405180910390f35b60025481565b60035481565b600160009054906101000a900473ffffffffffffffffffffffffffffffffffffffff1681565b60008054906101000a900473ffffffffffffffffffffffffffffffffffffffff1681565b6101288161019d565b82525050565b610137816101d9565b82525050565b610146816101cf565b82525050565b6000602082019050610161600083018461011f565b92915050565b600060208201905061017c600083018461012e565b92915050565b6000602082019050610197600083018461013d565b92915050565b60006101a8826101af565b9050919050565b600073ffffffffffffffffffffffffffffffffffffffff82169050919050565b6000819050919050565b60006101e4826101eb565b9050919050565b60006101f6826101af565b905091905056fea2646970667358221220cb7d06f39405b8559f67b66c268ce80c28c78903570501c27b0716e31b01c7c264736f6c63430008000033",
  "immutableReferences": {},
  "source": "// SPDX-License-Identifier: MIT\npragma solidity >=0.4.22 <0.9.0;\n\nimport \"./Crowdsale.sol\";\n\n\ncontract DappTokenCrowdsale is Crowdsale {\n\n  constructor(\n    uint256 _rate,\n    address _wallet,\n    ERC20 _token\n  )\n    Crowdsale(_rate, _wallet, _token)\n   \n  {\n\n  }\n}",
  "sourcePath": "/home/muhammadbabarhanif/new ICO's/contracts/DappTokenCrowdsale.sol",
  "compiler": {
    "name": "solc",
    "version": "0.8.0+commit.c7dfd78e.Emscripten.clang"
  },
  "schemaVersion": "3.4.6",
  "updatedAt": "2022-04-10T18:41:17.037Z",
  "devdoc": {
    "kind": "dev",
    "methods": {},
    "version": 1
  },
  "userdoc": {
    "events": {
      "TokenPurchase(address,address,uint256,uint256)": {
        "notice": "Event for token purchase logging"
      }
    },
    "kind": "user",
    "methods": {},
    "version": 1
  }
}